:100000000C94080E0C94390E0C94390E0C94390E85
:100010000C94390E0C94390E0C94390E0C94390E44
:100020000C94390E0C943E180C943E180C943E1807
:100030000C94390E0C94390E0C94390E0C94390E24
:100040000C94390E0C94390E0C94390E0C94390E14
:100050000C94390E0C94390E0C94390E0C94871CA8
:100060000C94390E0C9408180C94DF170C94390E6C
:100070000C94390E0C94390E0C94390E0C94390EE4
:100080000C94390E0C94390E0C94390E0C94390ED4
:100090000C94390E0C94390E0C94390E0C94390EC4
:1000A0000C94390E0C94390E0C94390E0C94390EB4
:1000B0000C94390E0C94390E0C94390E0C94390EA4
:1000C0000C94390E0C94390E0C94390E0C94390E94
:1000D0000C94390E0C94390E0C94390E0C94390E84
:1000E0000C94390E39133E1349134913491349131C
:1000F0004E1350135313071A0A1AF919FD19031A4C
:10010000411A0E1A121A181A1C1A201A261A2A1A1A
:100110002E1A411A341A381A3C1A68396135003FD0
:100120000069396135002E0061396132002C007A96
:100130007A00200061345633006A5F006131002587
:10014000004339006169004239553600697900671A
:1001500037007568006637006568006132513161AB
:10016000314F310063740061345633443700747288
:1001700000613256334437006472006535007A6896
:10018000006438002F750063340064680062350035
:100190007468006139002F006035007A005F350017
:1001A00066005E350073005D3100670061365C33C8
:1001B000613100636800463955345432006F79006C
:1001C00059395235006F77005C36007368005B392F
:1001D000006572005A38006F005938006F68005887
:1001E00037006E7800573100640061335633613256
:1001F000006A005535006978005537006968005479
:10020000370079005339553554320061790052373F
:100210000077005131006B004D310062004937001A
:100220006E0050310070004F310074004E34002FCA
:1002300068004C350076004B37006168004A370093
:100240006D004837006C004737006565004639008F
:10025000616F004537523600757700453800757874
:10026000004437007200413952360061770042394C
:1002700000616100413700616500613556324538E3
:100280000064757800204A415900204A5F002045EB
:10029000484E00204E5F002045484D00204D5F0035
:1002A00020414135520020525F0020454846002041
:1002B000465F00204959350020495F0020415943DD
:1002C000480020485F0020534545350020435F002B
:1002D00020424545350020425F002C002F002C00B5
:1002E00021000027003F002E002C0020002F002DB1
:1002F000003F003B002E003A004E4959354E003970
:10030000004159355400380053454835562F554E55
:10031000003700534948364B53003600464959359B
:100320005600350046414F3552003400544852457E
:1003300045350033005455483457003200574F3587
:100340004E0031005A49483552344F57003000535F
:100350004B52005343520045453500454100415939
:1003600000455900504C495900504C59004F52001B
:100370004F525200414852005552520041453552A9
:100380000041525200204D4F5734535400204D4FDE
:1003900053545F00414135520041525F00204448B0
:1003A0004548354E00205448454E5F002053414893
:1003B000354D0020534F4D45004B00510020534117
:1003C0004936440020534149445F00414844484570
:1003D00052004F54484552002053484545350020AF
:1003E0005348455F002050454534002050454F009C
:1003F000204F57354E4C454500204F4E4C595F001D
:1004000047004747004200424200204448414536E9
:100410004E00205448414E5F0044004444002044B4
:100420004841493452002054484549525F00202F2A
:100430004841455A00204841535F002044484159F3
:10044000340020544845595F002057454535002069
:1004500057455F00202044484958530020544849DC
:10046000530020424959330020425900202F48416F
:100470004535560020484156455F002F48454536D2
:100480000048455F002057495835444800205749E7
:1004900054485F002041455A002041535F004F59A6
:1004A000004F5935004F49005200525200414F351C
:1004B00052004F4F52002053002053430020495810
:1004C000365A002049535F004159005000505000F7
:1004D0004348004B530058004F48005A48005348C7
:1004E000004B57005155004E5847004E47004E589C
:1004F000004E475F004448005400545400544800E4
:1005000045480045004B00434B004C004C4C00411B
:100510004F52004F5200455200414952004552454A
:1005200000414952004E004E4E004D004D4D0045D9
:100530004536004545005558004F4F00494855483D
:10054000340045550046005048002F480048004AF6
:10055000004F0041480055004E004D005200590028
:100560004C0056005A005300414F52495834004F36
:100570005249005A005A5A00460057004B004300A7
:100580004B0049480049004145004100204D495970
:1005900000204D595F0045523552005552004948E0
:1005A000555700455700592F554C0055414C0045B3
:1005B00052360049520049593400494748004159D0
:1005C000340041490059555700594F555F00204AA2
:1005D0004959002047490057554800574F4F00429E
:1005E00000500044004700204D45453500204D4552
:1005F0005F004958355A2F554D0049534D00520060
:1006000057520020574552350020574F5200540092
:1006100057005748004157004F57002049593600AE
:1006200020495F005A482F550053494F0045450067
:10063000595F00204141355200204152455F00443E
:10064000482F5525005448455F00414949582345E6
:100650004500412359004D004D425F0020415900A3
:1006600020415F00534849582F55005449410053D9
:1006700045483400434500530043455F004600466B
:1006800046005300535300204F355600204F465F1D
:1006900000414F344C00414C4C0057414F36540000
:1006A00057415400574F3500574841004159355A7A
:1006B000454500415A5900474F4834570047484F75
:1006C000002500455F00414136535400415354001A
:1006D0004141344600414600414135004152004904
:1006E000590059455F00534841480054494F004262
:1006F000454535002042455F00414F524B00414C7B
:100700004B0020545558350020544F5F00414F3462
:1007100052004F52455F00574F5A005741535F00F8
:100720004E49582F554E004E494F4E002F485548C0
:10073000570057484F004958344A494800494749EB
:1007400000544C00544C4500495934500059504510
:10075000002F554C004C455F004A4548354E004738
:10076000454E004F483557004F41004A004447006E
:1007700045455A00454153455F00462F554C0045BD
:1007800046554C5F002F554C00554C5F0046554870
:10079000345400464F4F54005548005548354C00DE
:1007A000554C4C00530045535F004159345649584D
:1007B00000415649004F57004F5F004F5953004FBB
:1007C000494300414F350041550020574F344E00FA
:1007D000204F4E4500414F3552004F5552002041A9
:1007E00057355200204F5552004145345558004F5F
:1007F0005500445548345700444F5F004E4A004E60
:1008000047450050524F5734470050524F4700530E
:1008100049585A005345535F004441573400444FF0
:100820005700454834520045525200504157350058
:10083000504F57004E4157004E4F57002F484157D9
:100840003400484F57004755483400474F4F005336
:100850002543482F554E005354494F4E004E585A89
:10086000004E47535F004B415700434F57005548D8
:10087000354B004F4F4B00595558572300552349CE
:10088000004545004945002059555857230020553B
:1008900023450043485557230054552345005558D8
:1008A0005723005523410049485557352300552308
:1008B00045004F573523004F234500415923004140
:1008C000234F004959352300492345004159362318
:1008D00000412345004F573423004F2341004F5719
:1008E0003423004F234F00204548344E4545002017
:1008F000414E590055483544004F554C445F004B1C
:1009000041484D00434F4D455F0052415935540019
:10091000524541540041592300412341004145348F
:100920004C454500414C4C5900415935440049451E
:10093000440020474548540020474554002F5500A7
:100940004159344E4A2F5500414E474500415934D4
:100950004E4A00414E47455F004F5735004F450016
:10096000414800415F004149355200415245005322
:100970004841454C005348414C4C004159352300F7
:10098000412349004959542F554C0049544C4500C6
:100990004B5200434852004148422F554C004142BF
:1009A0004C45004159004149474800495900204100
:1009B0005935424C002041424C45004F57344C00C1
:1009C0004F4C455F002023495900202349450041F1
:1009D00048004F554748004959350055590055487A
:1009E0003552005552455F0047004755455F00208E
:1009F000594548355300205945535F005557360037
:100A000055455F004649483453480047484F5449CC
:100A100000434800544348005349480043490053A9
:100A200055583450454535524948414F5200535569
:100A3000504552494F52004959524F0049524F00B8
:100A40004F4A4545004F4759004B4E0043484E0022
:100A5000205349590020534349004F483557004F10
:100A60005547485F00454834524545004552595F57
:100A70000020234148460020234F5547485F004946
:100A8000483453005953004B5300584300414F34EE
:100A90005400204F554748540023454559002345ED
:100AA000595F004E004B4E004141354600415547CD
:100AB00048004F573523004F2355004D4959354BBA
:100AC000524F57004D4943524F0042454535252569
:100AD000424545534545004242430041594A004181
:100AE00047455F004E58474552004E474552005417
:100AF00048004754485F00202345453545520020B3
:100B00002345524500495923454500492359002FA3
:100B1000553553004F55535F0001020406080A0D76
:100B20001000000A01000A02000A03000A0400087B
:100B300005000C0600080700010800010900010A71
:100B400000060BFF000C010C0D02000E010C0F0142
:100B50000C10010C1100061200061300061400060A
:100B600015FC0016010C1700041800081900061ADD
:100B7000000A1B02001C010C1D02001E02001FFEC9
:100B80000020000A21020022FD0023000624FC00B0
:100B900025000826000820000A20000A81027A02A7
:100BA00001770274020171026E02016B026602019A
:100BB00064026102005E025B0201580253020150AE
:100BC000024D02014A024702014502420200400270
:100BD0003D02003A0237020135023202002F022C98
:100BE00002012A02270200250222020020021D0221
:100BF000001B02180200160213020011020E02006E
:100C00000B020402010202FF0100FC01F90101F6DE
:100C100001F30101F101EA0100E801E50100E2014F
:100C2000DF0100DC01D90101D701D40101D101CEDE
:100C30000101CB01C80100C501C00101BD01B60120
:100C400001B301AC0101AA01A70100A501A20100A5
:100C5000A0019D01019B0198010096019301019063
:100C6000018D01018A0187010084018101017E015A
:100C70007B010078017101006E0167010064015B76
:100C80000100580155010152014F01014C0147017A
:100C90000144014101013F013C01003901340100DF
:100CA00032012F01012D0128010026012101001F21
:100CB000011A0100140B0F0B0B0B050BFF0AF70AAF
:100CC000F20AEF0AEA0AE40ADF0ADB0AD70ACA0ACA
:100CD000C40ABB0AB70AB20AAD0AA80AA50AA30A3F
:100CE0009E0A990A920A8D0A8A0A870A840A7F0A4A
:100CF000770A710A6C0A650A5F0A5A0A550A500A8D
:100D00004C0A490A450A400A3C0A370A2E0A1F0AB9
:100D10001C0A180A140A110A0B0A040A000AFC0920
:100D2000F609EF09EA09E809E309DE09DB09D70951
:100D3000D209CF09CA09C509C009BB09B509AE095D
:100D4000AB09AB09A609A3099E0997099309900964
:100D50008B09840980097B0975096F096B0966098C
:100D6000630960095D09590953094D09480940099A
:100D70003D093D09380932092E09290924091D09AF
:100D80001909150910090A090409FF08F908F408E6
:100D9000EF08E708E308DE08DA08D508D108CC0830
:100DA000C808C308BF08BB08B708B208AE08A70840
:100DB000A3089E08990893088E088708840881086C
:100DC0007D08770873086E086A08660861085D0880
:100DD00057084F084B08460842083C0838083408B2
:100DE00030082B08270822081E08190814080F08C5
:100DF0000A080308FF07FC07F807F207EF07E907EF
:100E0000E407DE07DA07D507D007CA07C707C30715
:100E1000BF07BB07B807B507B107AA07A607A4070E
:100E2000A0079B079807980793078D0789078507F1
:100E30007F077A07740770076D076B0768076307FA
:100E40005F075907550751074D07480744074107F2
:100E50003D07360732072C07270720071B07170710
:100E600012070D0708070207FE06F906F406EF064B
:100E7000EB06E606E206DF06DC06D806D506D00657
:100E8000CC06C606C306C106BD06B706B306AC0649
:100E9000A806A406A0069A06960691068C06870662
:100EA000840682067F067D067906770674066F063D
:100EB0006B06640660065C065806560652064A062D
:100EC00045063F063906330630062D062906240658
:100ED00020061B061806180615061506120610062B
:100EE0000E060E06090603060006FE05FA05F205C3
:100EF000ED05E705E505E505E305E305E105E105A4
:100F0000DF05DF05DB05D705D305CE05C905C5051A
:100F1000C205BE05BA05B605B305AF05AB05A60506
:100F2000A3059E059B05960591058C058A058705F9
:100F300085058205800580057E057C057A057A0594
:100F400078057805750573056F05680566056605FE
:100F50006405640562056205600560055E055E0561
:100F60005C055C055A055A05580558055605530594
:100F7000510551054F054F054D054A0547054505E6
:100F800042053C053905360533052F052C052A0594
:100F900027052505210521051D0519051605160539
:100FA00013050F050C050A050705050503050005D2
:100FB000FD04FD04FA04F804F504F504F104EE045C
:100FC000EB04E704E404E104DE04DE04DB04DB04F8
:100FD000D804D804D604D304D004D004CD04CB0460
:100FE000C804C804C304BD04B904B604B204AD0403
:100FF000AA04A804A504A1049E049E0499049404D0
:101000008D04850481047B0474046C046804620408
:101010005C0454044F04490442043B0435042E0488
:1010200026041E041B04190412040A040704050400
:1010300002040004F903F003EB03E503DF03D80324
:10104000D203CB03C403BD03BB03B903B303AC0397
:10105000A5039D03990394038D03850381037C03FA
:101060007803740370036D036903640361035E0313
:101070005B03570353034F034D03440342033D03F4
:101080003B03350333032C032A03240322031C03ED
:101090001A0313031103080306030103FF02F902F5
:1010A000F702F502F302F102EF02ED02EB02EB02AE
:1010B000E902E902E702E702E502E502E302E202F1
:1010C000E002DE02DC02DA02D602D002CC02C60264
:1010D000C202BC02B802B302AF02AA02A602A00278
:1010E0009C02970293028E028A02850274FFFF041B
:1010F00030FBCF8888784595CD6A4485AA686576A7
:10110000888888685586A98A566587A8CB8A5685B7
:10111000BA8A788788888866557688565465665670
:1011200055445466565565565486464496EEFFED32
:10113000441052D9EFBD584566868877A8BA9B48B7
:101140004453A7CBAB6855658799898888A9998846
:101150007898A99978668798886866768888786785
:101160006666666666767766676787776696B8FFAF
:10117000CBFB9A85737858BA9D99898844645886C0
:10118000A9AA88865854768788999A788867668647
:10119000889ACAAAA88886768889888967666565D4
:1011A00065666666565555554477682B4475EAFF63
:1011B000ACDAEE5A3265565576BACD8B879948220D
:1011C00053776697AAAB8A6676574475988898AA2B
:1011D000BBAB898788567588888888685655555569
:1011E000555566566656555544656655445455558D
:1011F00076B9FDFFFFEEDECDAB68452332444455A2
:1012000076A9BABBABAA9A896855444454656687E7
:1012100098A9AAAA9AA9AAAA9A89888888886655A4
:101220005555554544545555454444545565666790
:1012300087B9ECFFFFCF8A24013175DAFEFFCE8A31
:10124000564454658899AAAABBBBAA8957455475C8
:10125000A8CBDDDDBC9A6856556587A9BBBB9A88CB
:10126000665555668798999988675655354307E1BD
:10127000A479BDE8FDDACFDBFB9AAB68964554252F
:10128000524454566587769A98AA99AA89A989885A
:101290006886686567857779A987AAAA9AA99888D0
:1012A000886766555555545544455434555575A869
:1012B000DBFEEFBE8B685554545555668799AAAB33
:1012C000AA8966555555657687889999999A999905
:1012D0009888886867677776666666666666666613
:1012E00066666666666666666666665555666676B0
:1012F0009AA6BBCBBBDEEDDDDDBCBCBA9A997868A3
:10130000665655555555556665667677888888982A
:1013100099AAAAAABABAABAAAA99898868665555A1
:10132000444444444444444454455565324334435E
:101330004455556576B9A89ABBCDDDDDEEEDDDDC13
:10134000BBAB9989886656554544545555556566D5
:101350008788889999AAAABAABBBABBBBBAA9A8962
:1013600088786656554444343333344355D7FFBFE9
:101370004933676889A9DD8B242295AA9A899958EF
:101380003454A7BB8A6866666597BAAB6855769889
:1013900089988868567588896866666666768867FB
:1013A0005655766776667766665666679999997830
:1013B00077776766777777989999A9AA99999978AD
:1013C00077776766777777989999A9AA899999998C
:1013D000AA9A99998977777766767777879999998D
:1013E000AA9A9999897777776676777786889888A1
:1013F0008888998988888899888898998888888829
:1014000088888888888888788887777788887787A1
:101410008888776666665655555566B8FEFFCE9A3B
:1014200089482401205566565555240088886886C9
:101430007897898876768889998868568799A9895E
:10144000665676888889787788889988685575A9D6
:101450009A8968556686A99A8856868888687577B5
:1014600098AA9889585566B9AB8A5865967878B91C
:10147000B878897665784B87758BB576A8A9445D71
:10148000498B8395781A6C7AC2B4557B85A8789875
:101490008587C485853BB84778A4946887667A7A3F
:1014A0008967C8A6837BC5C1B49887B3889999A971
:1014B000DABCEDCDBBCCDCFDFFFFFFFFFFFFFFFF84
:1014C000FFFFFFFFFFFF8C04000000000000000092
:1014D0000000103245130000000000000000000072
:1014E0000000101110111132545576769958658804
:1014F00048A3AB76C94A21846944C74A52A94872B5
:10150000ED8B78552432F4CF10FB4F5498687488D3
:101510005685895687787698999989687667659807
:10152000784454B8AB69557688566598445576B971
:10153000DCFEFFDECDAB9A885645232243548698C5
:10154000A9AA9A99998988564544545566768788F8
:10155000989999A999AAAAAA9A89786666666656F8
:1015600055555566666656555555555545B6FFA5AC
:10157000FB6A84955673D969B88C56666744A68A07
:1015800096AA68657646759988A98A677667659789
:1015900088C99AA9A9596589559888676646546685
:1015A0005586567656555665458758755595545CFB
:1015B00087A9A8ADBBBD9D9FABAB8A8B88884647EA
:1015C00044554455546555878697889998A9999AA2
:1015D0009899989A9999988A88887868665655450E
:1015E000544454445554554445645447A458D51F55
:1015F000D78FD58FA58884349534B65AB76C89892E
:101600008755674487589989999988868865889805
:1016100089AB9BB989865865555455676688668736
:10162000555664467546845975897467766667664B
:101630007787778988898989A8999AA99ABA9A9A7D
:10164000A9898988798777676667767667777788E3
:1016500097899999AAA99AAAA99A9989998778772D
:101660006777766667667787778988893AFB986CAB
:10167000A9A55A89A858676755556656768876860B
:101680008754554755856566888AA8AA89988967C9
:10169000888998BAABBABCABAAAA788778668688DC
:1016A00087988877785655564454454444A6AABB33
:1016B000CBBDBDABAABA9A8988888866666666671C
:1016C0008778888888877777777788888899AAAA9B
:1016D000AAAA9999998888666655555555555555BC
:1016E0005555555555655655555555456666F7FF3B
:1016F0009E5B7488565475DBBD884675584565B742
:10170000CB8A685676565487BAAB78776666569613
:10171000DABD8B5675677676989A886665776656D1
:1017200066876655656656656677886795DBFFFF51
:101730004A020073FBFFAF48234275889998AAAA12
:1017400068252253B8EDBD69243275A9AB9A888803
:10175000A989676687898969676666665566867836
:1017600066555555666666666666564567D7FFAB2D
:10177000CBAC892652875686BACB8B76884844559F
:10178000768988B9AB88676666457598999999BADC
:101790008A878878777698898788786655656665B8
:1017A0006666665665565565566666668B43973B14
:1017B000934C553F745958C803C726C318777A34D9
:1017C000C982A12B812D76A838787AE048A6834774
:1017D0003BA53A853B98648956B888836787277705
:1017E0000D735E72CC70D8444759985876878898A4
:1017F00099AAAAAAAA99898888776666554541B7A1
:10180000DCBE99B9BB8A454354552442657656548B
:1018100065776686CBEDCEBBBAAB99686566768692
:1018200077878889887899999998999AB6755A4B43
:1018300099B5585B89A6966888A6784A8BA5A54A6B
:101840004BB7B47A4C87C3782C4BC5A43A5B9995B7
:101850008849B7B4688AA7B5784C9AA5785A87B5ED
:10186000785C6BA6785AA7B3582D89D565666A66E9
:10187000A798666A66A7A6676668A66A67A7986655
:1018800066A79AA586667768A69A596689A7896524
:101890006886A676688666AA68666A7686767A66B6
:1018A000A66A7A66A68A767A8A956AA6898989A8B6
:1018B000999AA99ABA9A9AA989898879877767663D
:1018C0006776766777778897899999AAA99AAAA956
:1018D0009A99899987787767777666676677877741
:1018E0008988898989A8999AA99ABA9A88888888BA
:1018F0008888888888888888888888888888888868
:101900008888888888888888888888888888888857
:101910008888888888888888888888888888888847
:101920008888888888888888888888888888878838
:101930007986887686866666767898888A99888990
:10194000797A8A9989A89898688889797878888630
:10195000886768878785677A888A8B9AA999A99802
:10196000A9A9A898A896867676787666679899A9A0
:10197000AA9AAA898878677667768788999AA9AAA1
:101980009999897777667677778888A9AAA9AA89A5
:1019900088787777667677879999A9AA999A8988B6
:1019A0007766879999AAAAA99A888877D6FCCD9C48
:1019B0008888564476BAAB9989785644659899993F
:1019C0009989564564878898999968556586A9BB11
:1019D000AB8A685666878888785655555565666619
:1019E0005666555556456587886655559889AA990E
:1019F000AA898967776677768897A9A9AB99998725
:101A000078766776779789A99AB99999788866766A
:101A1000668788A999AA999A88887667667786885A
:101A2000989889AA99AA8989677766775587F48FE4
:101A3000958F23678675FB79B829537666B89C78AD
:101A40008845658797AA898756557688998A6866F2
:101A50005576AB98BA586556769989886855666602
:101A6000988877665556666686578756213244446D
:101A70006486AA9A77B9FDFFCDBACBCB8A5565A704
:101A8000AA8998B9CCAB68668878575597BAAB9A4B
:101A900099AA9A6866869899DBFDFFDFAB8988680A
:101AA0005555768878566666563422320000000016
:101AB0000000000000000000000000000000000026
:101AC0000000000000000000000000000000000016
:101AD0000000000000000000000000000000000006
:101AE00000000000000000000000000000002100D5
:101AF000240027002A002D003000330001010000DF
:101B0000040107010A0100000A0B02090C0D0E086E
:101B100007030401000000000000000000000000B6
:101B200000000000000000000000000000000000B5
:101B30000000121110000000000000000000000072
:101B40000000000000000000000000000000200075
:101B50002300260029002C002F0032000001000085
:101B600003010601090100002200250028002B00C6
:101B70002E003100340002010000050108010B01B4
:101B800005050505070508080808020202020A0AF9
:101B90000808040404040101010101010101030317
:101BA000030303030303040707070C0C0C0C0C0CC2
:101BB0000C0C0202020206060606060606060B0BBF
:101BC0000B0B0B0B0B0B0102102020080810204000
:101BD00010204080020102010804020101020408F1
:101BE000102040808040201008040201800402017F
:101BF00080402010080402010804020101020408C8
:101C0000102040800102040810204080CD22B7221D
:101C100011241FBECFEFD1E2DEBFCDBF00E00CBF6D
:101C200029E0A6E7B6E001C01D92AF3EB207E1F79A
:101C300016E0A0E0B2E0EEE4FCE400E00BBF02C07E
:101C400007900D92A637B107D9F71EE0C7E0DEE096
:101C500000E006C021970109802FFE010E94DC23CD
:101C6000C630D10780E00807A9F70E946F1D0C94C9
:101C700016260C94000096E0899FD0011124AA5EDC
:101C8000B64F90967C936E935F9791E091969C935C
:101C9000919790918209E0918309F09184099923A9
:101CA00039F0309751F0811108C08091320904C099
:101CB000309719F05C968C91199408952F923F9269
:101CC0004F925F926F927F928F929F92AF92BF924C
:101CD000CF92DF92EF92FF920F931F93CF93DF93F8
:101CE000CDB7DEB72A970FB6F894DEBF0FBECDBFD3
:101CF000C12CD12C2FEF3FEF3C832B83F4EBEF2E45
:101D0000FCE0FF2E1A821982A12CB12C712C40E02C
:101D100050E0F70165917491F70132962590349067
:101D20000B811C81080F191F912C512C812C612CC7
:101D300020E030E0FB01E20FF31F4490AB81BC8157
:101D4000A20FB31F119619F0D801EC9101C0E0E287
:101D5000FFE9FE0FFA3128F4E052B3E24B121DC046
:101D60002BC0F3E24F1203C0E134E4F023C0AFE52F
:101D70004A1216C0EE23D9F0F0EEFE0FF230B8F0A2
:101D8000EC32A9F0F2EDFE0FF23088F0EF3379F08B
:101D9000E73269F0EA33C1F40AC0BFE54B1661F3DC
:101DA0004420B1F0EE23A1F04E1649F011C0992461
:101DB000939405C0EB35C4F7522E832E6E2E2F5F01
:101DC0003F4F0F5F1F4FB6CF215031099924939495
:101DD000421753070CF059C0FB01E20FF31FE491C7
:101DE000E11153C0F101B6011A821982062C000CD0
:101DF00077084491442309F43FC0DF0111965D0147
:101E0000433209F02EC0FD014491442309F430C04F
:101E100044EB5CE0FA0105911491F801A491EA2FDA
:101E2000F0E0E615F70509F0D9C1F8013196E49123
:101E3000E111D4C1FA01329605911491AB014F54CE
:101E4000584F041B150BBA01615B7740F801E40F92
:101E5000F51F4490442071F0E491DA01ED93AD0157
:101E6000F2CFFB01EF54F84F40836F5F7F4F02C00A
:101E700059828A82F501BDCFFB01EF54F84F1082E1
:101E80005B01AC18BD08792CA901B4E0EB0EF11C84
:101E9000ECEEEE16E0E1FE0609F03BCF772011F004
:101EA000415051094115510509F48CC3CA0CDB1C82
:101EB000F1E7CF16D1040CF085C329813A812115B1
:101EC000310509F0A901AB81BC81A40FB51FBC830A
:101ED000AB83119609F412CFEB81FC81E80FF91F57
:101EE000208121110BCFA0E12A2E312C512C412C25
:101EF00080E090E020E030E0B1EBAB2EB7E0BB2E0D
:101F0000D5014C91442309F4D9C06CE97BE000E091
:101F100010E0812C1A861986DC01AF54B94FAC0150
:101F20004E54594F5C834B83AD01425051095E833F
:101F30004D834F5F5F4F58874F83FB0165907490CF
:101F4000BA82A98240E050E0E981FA819190FA8357
:101F5000E9839920B9F0EFEBE90DEA3120F4E0E2F2
:101F6000CE2EC90C01C0C92CF301E40FF51FE4907B
:101F70000C2C000CDD08F12CCE14DF0419F44F5F9B
:101F80005F4FE2CFE985FA85E417F5070CF067C0EB
:101F9000F301E40FF51FE491E11161C0FB013296FA
:101FA000E590F490F901EF5CF84F2F016F01EE1A04
:101FB000FF0A82010C191D09F201EE0DFF1D74903C
:101FC000772029F01491F20111932F01F2CFFB0138
:101FD0003496E490F12CF0E3EF0EF11C5E2C4F2CC4
:101FE000EFEFEC93EB81FC811082E0EDE90DEA303C
:101FF00078F4E92D990CFF0BE851F54FE491EC933F
:10200000EB81FC81E082FA013196FA87E98702C010
:102010005A874987F0E3EF16F10471F0E214F304F4
:1020200059F04C9147FD08C0ED81FE81408340E3AB
:10203000EF81F885408311C0E985FA85EA0DFB1D23
:10204000319740814062403241F4009721F0ED81A8
:10205000FE81408101C040E14C93882483946B5FF2
:102060007F4FFCE0643B7F0709F067CF49855A85C5
:10207000452B19F4882009F476C0200F311F213731
:10208000310508F070C0033011054CF4800F911F2A
:10209000A985BA85AA0EBB1E252C342C31CFFC0194
:1020A000EF54F94FBF014081428313823296AF0152
:1020B000461B570B04171507B1F7E8CFF901EF5C82
:1020C000F84F4AE74083418342834383F901EB5C45
:1020D000F84F11929F012153374020383105C8F342
:1020E000FC01EF54F94F8FEF9F01215B3640203800
:1020F000310520F4808311823296F6CF8091140945
:10210000909115098A30910509F0D8C1109280008C
:1021100088E592E0909387008093860081E1809328
:10212000810010928500109284008091800080626E
:10213000809380008CEE8093B00687E08093AF069A
:102140008FEC8093AE06712C198297E7892E95EC5F
:10215000992EB981AB2EB12CF501EF5CF84F20819F
:102160002B83211143C080911409909115098A3065
:102170009105E9F07CF48530910519F189309105DC
:10218000D1F0039709F01EC28091B0008F7D80933B
:10219000B00018C28D329105D9F08E329105A1F0B0
:1021A0008C9709F00FC280912001877F14C0809125
:1021B00080008F7D03C0809180008F7780938000A6
:1021C00001C210929000FEC1809120018F7703C060
:1021D000809120018F7D80932001F4C14C5F5F4F7F
:1021E000A0E14C3E5A0709F015CE44CE2A3719F427
:1021F0008FED9CED5DC13B81333209F45BC1432F10
:10220000042E000C550B41545109FA01EE0FFF1F2B
:102210004E0F5F1FFA01EF5DF44F5490FA01EE5D2F
:10222000F44F1491FA01ED5DF44F6490C5010196ED
:10223000FC01EF5CF84F508150535F83513011F037
:10224000550F5F832F812A5FF501EF54F94FF0801E
:10225000DC01AF54B94F8C91882349F09FEFF916F8
:1022600031F0803331F0263021F02F8302C00AE0B4
:10227000F02E1501A2E02A0E311CD101AF54B94F46
:102280000C918381882311F00F3F09F40AE017FFB6
:1022900005C0EBD7B2E2BD83512C34C0123041F5FA
:1022A000EF81E63019F4FFE0FB8302C021E02B83CD
:1022B0003F81330F330F3D834D81442309F4FAC02E
:1022C000D4D7CB80BBE0EB2E0CE028E0482F652D67
:1022D000809114099091150965D75B815F5F5B83DD
:1022E000503111F48FE08B839D8191509D83E4CF19
:1022F000112331F0C4010197F1F7A0E2AD8302C0D0
:10230000B0E2BD83D0901309D70CFD0C1F1414F05C
:10231000FF24F394D00E1D1414F0DD24D394F101A6
:10232000EF5CF84F8081882311F08A3741F4EF8108
:10233000E13069F58BE893E70197F1F728C0F1E008
:102340006F16A1F0E82F082E000CFF0BE154F109E5
:102350009F01220F331FE20FF31FED5DF44FE49155
:10236000F0E0E60DF11DF595E7956E2E17FD0FC017
:10237000E82F082E000CFF0BE154F1099F01220FFA
:10238000331FE20FF31FEE5DF44FE491E11181E69C
:10239000E82F880FFF0BE154F109CF01880F991F37
:1023A000E80FF91FEF5DF44F24912B83251101C035
:1023B0006F80662D70E0CB0195958795009759F059
:1023C00080589F4F0E94A723262E3F81313039F03D
:1023D00030E8732E0AC0212C77247A9406C0772423
:1023E0007A942CE0F22E40E44D83312C472C469415
:1023F00046945D81451618F4442079F001C04D8063
:102400009FE0C92EE42C0F2D2F2D432D652D80919B
:10241000140990911509C6D6382E8D81803471F03B
:10242000E82EE4188FE0C82E0D2D2D2D432D6B8145
:102430008091140990911509B5D6382E9FEF791621
:1024400041F0AF81A61528F47218B7ECB71508F45F
:10245000712C1F3F11F46EE10BC01E3F11F46DE1B2
:1024600007C01D3F11F461E203C01C3F39F46BE16A
:1024700080911409909115090E944F1DEF81E15040
:10248000EF83E111B3CFF501EF5CF84F80E0712CE1
:102490009485993629F0983621F4782E719401C0EC
:1024A000782E32978F5F863099F7113019F4C40176
:1024B0000197F1F7F981FE5FF9834BCE8B309105DF
:1024C000ECF585309105A9F41092900088E592E032
:1024D000909397008093960081E1809391001092F1
:1024E00095001092940080919000806880939000F5
:1024F00021CE8930910599F41092800088E592E010
:10250000909387008093860081E1809381001092F0
:1025100085001092840080918000806809CE039726
:1025200009F008CE81E28093B00089E08093B10089
:1025300088E58093B4001092B200FCCD8D329105F5
:1025400099F41092200188E592E0909327018093FE
:10255000260181E18093210110922501109224012E
:1025600080912001806215C08E329105A9F41092ED
:10257000200188E592E0909327018093260181E174
:102580008093210110922501109224018091200155
:10259000806880932001CECD8C9709F0CBCD10922E
:1025A000200188E592E0909327018093260181E144
:1025B0008093210110922501109224018091200125
:1025C0008860E7CF2A960FB6F894DEBF0FBECDBF66
:1025D000DF91CF911F910F91FF90EF90DF90CF90FF
:1025E000BF90AF909F908F907F906F905F904F9033
:1025F0003F902F900895EF92FF920F931F93CF93E8
:10260000DF93EC01E12CF12C00E010E08091A709B0
:102610009091A809DC01ED91FC910084F185E02DF9
:102620001995892B81F461E070E080E090E00E94D0
:102630004F1CBFEFEB1AFB0A28EEE21623E0F2066E
:1026400028F38FEF49C08091A7099091A809DC0178
:10265000ED91FC910284F385E02D1995982F0930B6
:10266000110548F5F8018827EE58FF4F8F4F0C945D
:10267000DC239F3E59F61882998328C0288139812E
:10268000A901492BCA019983888381309F4EF1F0BB
:1026900020C0FE01E00FF11F908318C09E8316C07A
:1026A0001F82988713C02F813885D901A92BCD01AE
:1026B00098878F830BC0FE01E00FF11F80832F816D
:1026C0003885C80108978217930729F00F5F1F4FBD
:1026D0009DCF8EEF01C080E0DF91CF911F910F91D0
:1026E000FF90EF900895DF92EF92FF920F931F9368
:1026F000CF93DF93EC018091A7099091A80969819C
:10270000DC01ED91FC910190F081E02D1995809113
:10271000A7099091A809DC01ED91FC910190F0814D
:10272000E02D688119958091A7099091A809DC0195
:10273000ED91FC910190F081E02D6A8119958091D5
:10274000A7099091A809DC01ED91FC910190F0811D
:10275000E02D6B8119958091A7099091A809DC0162
:10276000ED91FC910190F081E02D6C8119958091A3
:10277000A7099091A809DC01ED91FC910190F081ED
:10278000E02D6D8119958091A7099091A809DC0130
:10279000ED91FC910190F081E02D6E811995EF8013
:1027A000F884B2E0EB0EF11C8091A7099091A80982
:1027B0000F2D1127DC01ED91FC910190F081E02DAE
:1027C000602F19958091A7099091A809DC01ED91DE
:1027D000FC910190F081E02D6E2D19950E0D111DCB
:1027E0008E81080F111DD12CED2CF12C2F813885F5
:1027F0008091A7099091A809E216F30690F4EC0ED7
:10280000FD1EDC01ED91FC910190F081E02DD701DE
:1028100019966C911995F7018185080F111DD394B4
:10282000E3CFDC01ED91FC910190F081E02D612F6F
:1028300019958091A7099091A809DC01ED91FC916F
:102840000190F081E02D602FDF91CF911F910F91CA
:10285000FF90EF90DF901994DC019B01BA0181E0B9
:102860009FEE11969C938E9381E016968C9316970B
:1028700018963C932E9317978FEF12968C9312977E
:1028800013968C93139714968C93149715968C9398
:10289000159719962034310520F4A901CD010C9427
:1028A000FD2580E4FA0101900D928A95E1F70895E3
:1028B000CF93DF93CDB7DEB7CB54D1090FB6F894E1
:1028C000DEBF0FBECDBF92E02B969FAF2B972C960D
:1028D0008FAF2C97AE01465B5F4F62E070E0CE0198
:1028E0000196BADFCE010196FEDECE01019683DEAF
:1028F000811105C08F81873011F48A8501C081E084
:10290000C55BDF4F0FB6F894DEBF0FBECDBFDF91C2
:10291000CF910895CF93DF93CDB7DEB7CA54D109D5
:102920000FB6F894DEBF0FBECDBF81E02B968FAF00
:102930002B97AE01465B5F4F61E070E0CE010196E0
:102940008BDFCE010196CFDECE01019654DE8111E0
:1029500005C08F81873011F48A8501C081E0C65B94
:10296000DF4F0FB6F894DEBF0FBECDBFDF91CF9122
:1029700008950C94321D8F929F92AF92BF920F9345
:102980001F93CF93DF93CDB7DEB7A1970FB6F8941F
:10299000DEBF0FBECDBF19A2423008F44AE08E015F
:1029A0000F5D1F4F842E912CA12CB12CA5019401F9
:1029B0000E94BA23E62FB901CA0101501109EA3079
:1029C00014F4E05D01C0E95CD801EC93232B242BC7
:1029D000252B61F7C8010E94321DA1960FB6F8940D
:1029E000DEBF0FBECDBFDF91CF911F910F91BF9082
:1029F000AF909F908F900895CF93DF93AB01682F96
:102A00004115510521F486E798E010D104C070E02B
:102A100080E090E0B0DFEC0187E195E00E94321D9C
:102A20008C0F9D1FDF91CF910895CF92DF92EF928F
:102A3000FF920F931F9396E0899FF0011124EA5EA5
:102A4000F64F11A2278D30A12130310531F158F018
:102A50002230310509F446C02330310509F04DC05C
:102A600060E070E043C0662309F447C061E070E0B5
:102A700002D92FB7F8948091AA069091AB06A09145
:102A8000AC06B091AD062FBF80936E0990936F098D
:102A9000A0937009B093710930C09FB7F894C090AB
:102AA000AA06D090AB06E090AC06F090AD069FBFB2
:102AB00000916E0910916F09209170093091710990
:102AC000C01AD10AE20AF30A009180091091810923
:102AD00020E030E00C151D052E053F0518F462E0DE
:102AE00070E004C0611109C063E070E01F910F91B4
:102AF000FF90EF90DF90CF90BEC81F910F91FF9095
:102B0000EF90DF90CF900895CF92DF92EF92FF92F7
:102B10000F931F93CF93DF936C017A018B01C0E079
:102B2000D0E0CE15DF0581F0D8016D918D01D60181
:102B3000ED91FC910190F081E02DC6011995892B52
:102B400011F02196EECF7E01C701DF91CF911F9149
:102B50000F91FF90EF90DF90CF900895FC01538D7F
:102B6000448D252F30E0842F90E0821B930B541767
:102B700010F0CF96089501970895FC01918D828DF4
:102B8000981761F0828DDF01A80FB11D5D968C91C1
:102B9000928D9F5F9F73928F90E008958FEF9FEFCC
:102BA0000895FC01918D828D981731F0828DE80F88
:102BB000F11D858D90E008958FEF9FEF0895FC0142
:102BC000918D228D892F90E0805C9F4F821B91090F
:102BD0008F739927089586E798E0F1DF21E0892B2C
:102BE00009F420E0822F0895FC01848DDF01A80FF5
:102BF000B11DA35ABF4F2C91848D90E001968F7325
:102C00009927848FA689B7892C93A089B1898C9143
:102C1000837080648C93938D848D981306C0028892
:102C2000F389E02D80818F7D80830895EF92FF925C
:102C30000F931F93CF93DF93EC0181E0888F9B8DDF
:102C40008C8D981305C0E889F989808185FD25C0A0
:102C5000F62E0B8D10E00F5F1F4F0F731127E02E24
:102C60008C8DE8120BC00FB607FCFACFE889F98902
:102C7000808185FFF5CFCE01B7DFF2CF8B8DFE01CE
:102C8000E80FF11DE35AFF4FF0829FB7F8940B8FC6
:102C9000EA89FB89808180620AC09FB7F894EE8937
:102CA000FF896083E889F9898081837080648083EB
:102CB0009FBF81E090E0DF91CF911F910F91FF9036
:102CC000EF900895CF93DF93EC01888D8823C1F0B6
:102CD000EA89FB89808185FD05C0A889B9898C9125
:102CE00086FD0EC00FB607FCF5CF808185FFF2CFC1
:102CF000A889B9898C9185FFEDCFCE0175DFE8CF2A
:102D0000DF91CF91089580E090E0892B19F063DF87
:102D1000811125C080E090E0892B41F080E090E0B7
:102D2000892B21F00E94000081111CC080E090E0FE
:102D3000892B41F080E090E0892B21F00E94000077
:102D4000811113C080E090E0892BA1F080E090E039
:102D5000892B81F00E94000081110AC008950E9411
:102D60000000D8CF0E940000E1CF0E940000EACF0F
:102D70000C94000008952091780630917906281768
:102D8000390771F49091760680917706981741F093
:102D9000E0917606F0E0EF5CF74F808190E00895D7
:102DA0008FEF9FEF089508951F93CF93DF93DC017A
:102DB0005C968D919C915D97009739F421E030E00D
:102DC00013963C932E9312973BC05196ED91FC9134
:102DD000529750962C915097322F30951FB75E9690
:102DE0004C915E97742F727041FD6095F89440810C
:102DF000772311F0422B01C043234083EC0121973C
:102E0000F1F748E0508160FF02C0522B01C053230C
:102E10005083EC012197F1F76695415099F7808135
:102E2000772319F08323808302C0282B20831FBFC0
:102E30005C968D919C915D970197F1F781E090E010
:102E4000DF91CF911F9108952091780630917906F6
:102E50002817390769F4809177062091760690E06B
:102E6000805C9F4F821B910960E470E00C94A72363
:102E700080E090E008952091780630917906281737
:102E80003907B9F49091760680917706981789F002
:102E9000E0917606F0E0EF5CF74F808120917606B6
:102EA00030E02F5F3F4F2F7333272093760690E05B
:102EB00008958FEF9FEF0895089580E090E00895C2
:102EC0006F7048E552E0649F9001659F300D1124BA
:102ED00045E0359527954A95E1F78A309105B9F097
:102EE00054F485309105A1F18930910509F10397DA
:102EF00009F05AC03DC08D32910509F446C08E32AA
:102F0000910509F442C08C9709F04EC03EC08091F3
:102F10008A0090918B002817390709F445C0109258
:102F200085001092840030938B0020938A000895CE
:102F3000809188009091890028173907A9F1109293
:102F400085001092840030938900209388000895B2
:102F500080919800909199002817390729F11092D3
:102F60009500109294003093990020939800089552
:102F7000232F33278091B40090E028173907A1F060
:102F80001092B2002093B400089580912A0190918C
:102F90002B012817390741F01092250110922401C6
:102FA00030932B0120932A0108950E94F925862F42
:102FB0008EC2862F642FB3C2862F642FDEC21F926B
:102FC0000F920FB60F9211240BB60F922F933F93CF
:102FD0004F935F936F937F938F939F93AF93BF9321
:102FE000EF93FF9386E798E0FFDDFF91EF91BF91AC
:102FF000AF919F918F917F916F915F914F913F9191
:103000002F910F900BBE0F900FBE0F901F90189531
:103010001F920F920FB60F9211240BB60F922F939F
:103020008F939F93EF93FF93E0918608F091870829
:103030008081E0918C08F0918D0882FD12C0908112
:1030400080918F088F5F8F7320919008821751F0C5
:10305000E0918F08F0E0EA58F74F958F80938F0842
:1030600001C08081FF91EF919F918F912F910F90DF
:103070000BBE0F900FBE0F901F9018951F920F92CE
:103080000FB60F9211240BB60F922F933F934F93CD
:103090005F936F937F938F939F93AF93BF93EF93C0
:1030A000FF93E0917806F0917906309709F451C0CA
:1030B000968DA685B785858591FF04C09C9189234F
:1030C00029F447C09C91892309F043C0A389B4899E
:1030D0009C918589809589238C938689978901970E
:1030E000F1F7608D718DA685B785558538E020E0B4
:1030F000CB010197F1F7822F90E095958795282FC6
:103100004C91452309F02068315091F7868D81FD5F
:1031100020958091770690E001968F7399273091E2
:103120007606381749F0A0917706B0E0AF5CB74F4C
:103130002C938093770603C0868D8160868F828D65
:10314000938D0197F1F7A389B4899C918589892B87
:103150008C93FF91EF91BF91AF919F918F917F9150
:103160006F915F914F913F912F910F900BBE0F90F8
:103170000FBE0F901F901895E0917806F091790698
:10318000E817F90769F4A389B4899C91858980952A
:1031900089238C93109279061092780681E0089525
:1031A00080E008954F925F926F927F928F929F92EC
:1031B000AF92BF92CF92DF92EF92FF920F931F9345
:1031C000CF93DF933C01D42E80E4689FE00111246B
:1031D000C451DF4E86E0289F500111244501880C20
:1031E000991C880C991C85E0881A910886E0089F34
:1031F000800111242801440C551C440C551C85E009
:10320000481A5108E40E8D2D8F73DE14E9F0FE018B
:10321000E80FF11DF4906F2D6C21C30151DE82E0A7
:10322000A816B10418F0C4010197F1F76F2D62954B
:103230006F706C21C30144DE0230110518F0C20129
:103240000197F1F7D394DFCFDF91CF911F910F91C9
:10325000FF90EF90DF90CF90BF90AF909F908F90B6
:103260007F906F905F904F9008958091B006282FC7
:103270002874285C880F8093B0069091AF0697FF62
:1032800003C08F5F8093B006990F9093AF06809133
:10329000AE0687FF03C09F5F9093AF06880F26FDA1
:1032A0008F5F8093AE068091B0060895CF93DF9331
:1032B00010928B0610928A06C0918A06D0918B06D6
:1032C000CE010E949123882351F0FE01E658F94F68
:1032D00080832196D0938B06C0938A06EDCFDF9131
:1032E000CF910895CF93DF93CDB7DEB7CF54D109F7
:1032F0000FB6F894DEBF0FBECDBF8FE595E039DB8A
:1033000009DB882329F0833031F486E595E002C09B
:103310008CE395E0B8D381E0CBDA882331F08630B6
:10332000E1F78CE695E0AFD3FCCF86E0EFE1F2E089
:10333000DE01A65BBF4F01900D928A95E1F7AE01C9
:10334000465B5F4F66E070E0CE01019685DACE0104
:103350000196C9D9CE0101964ED9811117C08F812E
:103360008730A1F48B859C8598278927982790938F
:103370008609809385098D859E85982789279827BA
:1033800090938809809387098A8501C081E090E045
:10339000009779F486E08093130987EB95E00E940B
:1033A0005E0E8DEC95E00E945E0E8CED95E06BD389
:1033B00009C0099709F0A4CF86E196E064D392DFB3
:1033C00089E090E0C15BDF4F0FB6F894DEBF0FBE1F
:1033D000CDBFDF91CF91089590E0FC013197E231AC
:1033E000F10508F04EC08827E558FF4F8F4F0C9429
:1033F000DC23809180008F7703C0809180008F7DD7
:1034000080938000089580918000877FF9CF84B5F4
:103410008F7702C084B58F7D84BD08958091B00000
:103420008F7703C08091B0008F7D8093B0000895A6
:10343000809190008F7707C0809190008F7D03C0AE
:1034400080919000877F8093900008958091A000E4
:103450008F7707C08091A0008F7D03C08091A0006E
:10346000877F8093A0000895809120018F7707C007
:10347000809120018F7D03C080912001877F809300
:10348000200108953FB7F8948091720890917308D5
:10349000A0917408B091750826B5A89B05C02F3F70
:1034A00019F00196A11DB11D3FBFBA2FA92F982F6A
:1034B0008827820F911DA11DB11DBC01CD0142E0E5
:1034C000660F771F881F991F4A95D1F70895CF93EC
:1034D000DF93282F30E0F901EA5FF44E8491F9017F
:1034E000EA53F44ED491F901E058F44EC491CC2340
:1034F00089F0811171DFEC2FF0E0EE0FFF1FE45B2C
:10350000F44EA591B491EC91ED2381E090E021F48B
:1035100080E002C080E090E0DF91CF9108951F939A
:10352000CF93DF93282F30E0F901EA5FF44E8491C6
:10353000F901EA53F44ED491F901E058F44EC491E4
:10354000CC23B9F0162F811147DFEC2FF0E0EE0FFE
:10355000FF1FEA59F44EA591B4919FB7F894111149
:1035600004C08C91D095D82302C0EC91DE2BDC9363
:103570009FBFDF91CF911F910895CF93DF9390E08C
:10358000FC01EA53F44E2491FC01E058F44E84917E
:10359000882361F190E0880F991FFC01E451F54EFA
:1035A000C591D491FC01EA59F44EA591B4916111F1
:1035B00009C09FB7F8948881209582238883EC9175
:1035C0002E230BC0623061F49FB7F8948881322FAC
:1035D000309583238883EC912E2B2C939FBF06C0BC
:1035E0008FB7F894E8812E2B28838FBFDF91CF917E
:1035F00008956F927F928F929F92AF92BF92CF92D7
:10360000DF92EF92FF920F931F93CF93DF9381E0AE
:10361000809382098FB7F8944091AA065091AB0627
:103620006091AC067091AD068FBF80917209909148
:103630007309A0917409B0917509481B590B6A0B65
:103640007B0B80917E0990917F09A0E0B0E0841708
:103650009507A607B70708F0EAC0C0E080917C098B
:10366000C81730F0712C812C912C540183943CC0EC
:10367000E0917809F0917909EC0FF11D62E0808109
:103680007CDFCF5FEBCFC62DD0E0E0917809F091E1
:103690007909EC0FFD1F80811ADF2496CC0FDD1F06
:1036A000CA5ED64F892B09F047C0888199818C2941
:1036B0009D2999838883639480917C09681618F307
:1036C000E0917A09F0917B09E00FF11F61E08081C0
:1036D00026DF80917A0990917B09FC01E00FF11FB0
:1036E00060E080814ADF739480917D09781648F507
:1036F000072D10E0E0917A09F0917B09E00FF11FAE
:1037000061E080813ADFE0917A09F0917B09E00F76
:10371000F11F60E0808103DFD501C401072C04C0E4
:10372000880F991FAA1FBB1F0A94D2F76C017C0156
:10373000E094F094612CC0CF888199818E219F21E3
:10374000B8CF26E1E22E29E0F22E82E599E0F701DA
:103750002FEF3FEF478D50A1452B21F4148E368F6C
:10376000258F11A236968E179F07A1F7C0E096E02D
:10377000D92E80917C09C81758F5D0E00C2F10E0A5
:10378000000F111F025E164F20917D09D217F0F431
:10379000F801408151810D2E02C0569547950A943B
:1037A000E2F7642F6170C29F900111242D0F311D2B
:1037B000E6E1F9E080E0A58DB68D2A173B0709F414
:1037C00056C08F5F36968A30B1F735C0CF5FD1CF04
:1037D00080E0F70191A1911181E0F6E0EF0EF11C7C
:1037E00092E5E91699E0F906A1F79FB7F8944091A0
:1037F000AA065091AB066091AC067091AD069FBFD2
:10380000409372095093730960937409709375091A
:10381000882369F080913709882349F08091350920
:1038200090913609019719F48091320929C01092BC
:10383000820980E025C040FF1BC0E6E1F9E080E09E
:1038400090E0448D411116C0E0917609F09177091E
:10385000E20FF31F4081D89EF001D99EF00D112494
:10386000EA5EF64F448F368F258F10A2178EDDD873
:10387000DF5F8ACF019636968A30910511F7F8CF2F
:10388000DF91CF911F910F91FF90EF90DF90CF903C
:10389000BF90AF909F908F907F906F9008958F9280
:1038A0009F92AF92BF92CF92DF92EF92FF926B0105
:1038B0007C01E8DD4B015C01C114D104E104F10499
:1038C000E9F0E0DDDC01CB0188199909AA09BB09FF
:1038D000883E9340A105B10578F321E0C21AD108D2
:1038E000E108F10888EE880E83E0981EA11CB11C47
:1038F000C114D104E104F10421F7DECFFF90EF9071
:10390000DF90CF90BF90AF909F908F9008951F92BF
:103910000F920FB60F9211242F933F938F939F9383
:10392000AF93BF938091AA069091AB06A091AC068D
:10393000B091AD063091710823E0230F2D3720F4AC
:103940000196A11DB11D05C026E8230F0296A11DF9
:10395000B11D209371088093AA069093AB06A093A3
:10396000AC06B093AD068091720890917308A09157
:103970007408B09175080196A11DB11D809372085D
:1039800090937308A0937408B0937508BF91AF919A
:103990009F918F913F912F910F900FBE0F901F908D
:1039A00018950F931F93CF93DF93EC01162F042FDD
:1039B0001B821A8288EE93E0A0E0B0E08C839D83A6
:1039C000AE83BF8389E292E0998388831F8A1E8A2F
:1039D000198E188E1B8E1A8E1D8E1C8E6E8D6E7F0C
:1039E0006D7F6E8F6695617081E06827842F97DD0B
:1039F00061E0802FC2DD802F90E0FC01EA53F44E9D
:103A0000E491E88BFC01E058F44EE491F0E0EE0F15
:103A1000FF1FEA59F44E859194919A8B898B60E04F
:103A2000812FABDD8E8D81FD03C061E0812F77DDBD
:103A30001C87812F90E0FC01EA53F44EE491ED875E
:103A4000FC01E058F44EE491F0E0EE0FFF1FE45B60
:103A5000F44E859194919F878E87DF91CF911F912E
:103A60000F910895009761F0FC0101900020E9F7A3
:103A70003197AF01481B590BBC0186E798E044C859
:103A800080E090E00895CF93DF93ECDFEC0187E1D5
:103A900095E0E8DF8C0F9D1FDF91CF910895AF92E5
:103AA000BF92CF92EF920F93CF93DF935C01D62F0B
:103AB000C4E0C15061F0D9DB9FE0C92E2AE0E22EBC
:103AC00007E027E0482F6D2FC5016CDBF2CFDF91B7
:103AD000CF910F91EF90CF90BF90AF900895CF937B
:103AE000DF93CDB7DEB7CE54D1090FB6F894DEBF61
:103AF0000FBECDBF789484B5826084BD84B58160EB
:103B000084BD85B5826085BD85B5816085BD8091A8
:103B10006E00816080936E00109281008091810020
:103B20008260809381008091810081608093810018
:103B3000809180008160809380008091B1008460DA
:103B40008093B1008091B00081608093B00080913B
:103B500091008260809391008091910081608093B8
:103B60009100809190008160809390008091A100ED
:103B700082608093A1008091A10081608093A10068
:103B80008091A00081608093A000809121018260DB
:103B90008093210180912101816080932101809196
:103BA000200181608093200180917A00846080935D
:103BB0007A0080917A00826080937A0080917A0006
:103BC000816080937A0080917A00806880937A0087
:103BD0001092C10061E086E1D0DC60E082E3CDDCE0
:103BE00060E081E3CADCE0918608F091870802E09A
:103BF0000083E0918208F09183081082E0918408AC
:103C0000F09185088FEC808310928E08E0918A08ED
:103C1000F0918B0816E01083E0918808F0918908F4
:103C2000808180618083E0918808F091890880819B
:103C300088608083E0918808F0918908808180689D
:103C40008083E0918808F091890880818F7D80834E
:103C500068EE73E080E090E022DEE091AB09F09145
:103C6000AC09309731F1A089B1890C93A089B18951
:103C70001C92A485B5851C92A685B78580E18C939E
:103C8000108EA489B5891C93A289B3898C91806117
:103C90008C93A289B3898C9188608C93A289B38913
:103CA0008C9180688C930288F389E02D80818F7DD0
:103CB00080830091A9091091AA090115110509F441
:103CC000A9C0D8015B961C921E925A9759961C92D5
:103CD0001E92589757961C921E92569782E490E037
:103CE0005D969C938E935C971C968C9196EF980FA3
:103CF000943048F02EEC280F243028F022EC280FC6
:103D0000283008F05FC02FE030E0F801378B268BB9
:103D100020E430E0318F208F27E230E0338F228F94
:103D2000943058F02EEC280F243038F022EC280F75
:103D3000283030F4A8E6B0E005C0A8E6B0E014C42E
:103D4000A0E0B0E0283008F40FC4E0E0F0E020810B
:103D5000943008F4EDC39EEC980F943008F4E8C357
:103D60008E53883008F0E4C384E0822B8C93D80112
:103D70001C968C9196EF980F943008F4DBC32EECD0
:103D8000280F243008F4D6C322EC280F283008F07E
:103D9000D4C32DE630E0F801348B238B943008F047
:103DA000CFC39AEF980F81E001C0880F9A95EAF788
:103DB000D80155968C9355975C968D919C915D9703
:103DC0000197F1F7F801828D938D892B19F180917C
:103DD00078069091790608171907E1F0009709F025
:103DE000CBD9D8015E968C915E978E7F5E968C9330
:103DF0005E971092770610927606109379060093DC
:103E000078065396ED91FC915497908155968C913C
:103E1000892B80837E01BAE4EB0EF11C85E0F7016B
:103E200011928A95E9F783E1D7018C9380918B09F0
:103E300090918C0920918D0930918E0911963C93B7
:103E4000119712962C93129713969C93139714968E
:103E50008C93A70165E070E0CE0101960E942C14BE
:103E6000CE0101960E947313CE0101960E94FB12AF
:103E700081110AC08F81873039F48A85811104C08D
:103E800083E592E000DE08C08CE692E0FCDD61E0B4
:103E900070E080E090E003DD80E090E042D48111AA
:103EA00003C010928D0603C081E080938D0680913F
:103EB0008D06811150C068E070E080E090E0B9D5D7
:103EC0008C01009749F0FC0110826DE872E0A7D6E2
:103ED00077E0A72EB12C02C0A12CB12C10928B063A
:103EE00010928A0680918A0690918B068A159B050E
:103EF00018F40115110529F410928C06ECE8F6E08F
:103F000003C0F801E80FF91F20812223D1F08A15A0
:103F10009B0518F40115110529F410928C06ECE8A4
:103F2000F6E003C0F801E80FF91F608102D4809128
:103F30008A0690918B06019690938B0680938A0651
:103F4000D1CF60E0C501F5D310928B0610928A069E
:103F5000C801E6D401C0AAD9A9D930E1A32E46E010
:103F6000D42EBB24B39455E0752E6CE0662E41DB55
:103F7000182F82E3ACDA019791F4B092A90610925F
:103F8000A80610928B0610928A06D092130985E932
:103F900092E00E945E0E84E193E075DD9CC21123E5
:103FA00009F499C28091A9068823A1F11092A8066C
:103FB0001092A7061092A6061092A5061092000273
:103FC0001092A4061092A306133239F080918A064B
:103FD00090918B068F30910539F410928B061092D8
:103FE0008A06B092A70616C0FC01ED56F94F108361
:103FF0008AE193E00E94B914612F86E798E00E945D
:10400000161680918A0690918B06019690938B06E6
:1040100080938A068091A7068823A1F163E976E060
:104020008AE796E0F3D5892B11F51092A906B09294
:10403000A606EAE7F6E0DF018A2D1D928A95E9F7E8
:10404000D092130988EA92E00E945E0E8BEB92E018
:104050001ADDE3E9F6E0DF018A2D1D928A95E9F782
:1040600060ED77E080E090E01ADC11E40BC0B092E4
:10407000A906D09213098DEC92E00E945E0E85E0B5
:1040800093E001DD8091A606882309F447C01092D1
:10409000A706133231F080918A0690918B060F9714
:1040A00001F5B092A50602D910928B0610928A06ED
:1040B0001092920610929106E3E9F6E0DF018A2D54
:1040C0001D928A95E9F7D092130988E293E00E9445
:1040D0005E0E85E393E0D7DC8AE796E0D4DC10E25D
:1040E0001DC0612F809191069091920622D3612F7D
:1040F00086E798E00E94161680918A0690918B06BA
:10410000019690938B0680938A06809191069091F8
:104110009206019690939206809391068091A5064F
:10412000882309F496C11092A606D0921309103282
:1041300019F45FDA182FFBCF10939006112309F4BE
:10414000F4C181E3C4D9019709F040C0D701E72D3C
:104150001D92EA95E9F7D7016C921496BC921497D8
:1041600012961C93A70165E070E0CE0101960E94B3
:104170002C14CE0101960E947313CE0101960E9469
:10418000FB1281110BC08F81873041F40A85011128
:1041900003C085E493E00EC0013019F48EE493E08F
:1041A00009C00B3019F482E693E004C0083121F411
:1041B00084E893E068DC4BC18BE993E00E94B9147A
:1041C00060E170E0802F0E94FC1441C181E37FD93F
:1041D000892B09F03CC18DEA93E00E94B9146091EB
:1041E000900670E080E090E04AE00E94BB14D0921C
:1041F00013098FE595E00E945E0E8FE595E043DCA4
:104200000E948A14082F813079F038F0823049F00A
:10421000833069F48DEC93E0F2CF8FEB93E033DCE5
:104220000BC08BEC93E0EBCF8EE493E0E8CF8BED0B
:1042300093E029DC0111E4CF81E00E945814082F9B
:10424000863009F490C008F05AC0811150C089EE40
:1042500093E019DCD092130989EF93E00E945E0E7F
:1042600087E094E010DC60ED77E080E090E017DB21
:104270000E948A148230E1F789E494E00E94B91424
:104280006AE070E0809190060E94FC14D0921309BD
:104290008DE494E00E945E0E85E694E0F4DB0E94DB
:1042A0008A14082F813089F038F0823049F0833049
:1042B00079F48DEC93E0F2CF8FEB93E0E4DB0DC06B
:1042C0008BEC93E00E94B914EACF8EE493E0E6CF42
:1042D0008BED93E0D8DB0111E2CF82E00E9458140D
:1042E000082F863009F43FC050F4882381F0013054
:1042F00009F0A6C08EE493E0C6DBC02EA8C007304C
:1043000019F485E294E0F8CF0531D9F399C089EE2C
:1043100093E0B9DB8DE794E00E94B9146AE070E0A5
:10432000809190060E94FC14F7017082A70161E061
:1043300070E0CE0101960E942C14CE0101960E94DD
:104340007313CE0101960E94FB12811105C08F816B
:10435000873011F40A8501C001E0802F90E00097BA
:1043600009F049C003C085E194E0C6CF82E994E03A
:104370008ADB89E494E00E94B9146AE070E08091DD
:1043800090060E94FC14809190062E961CAE1DAEE5
:104390001EAE1FAE2E972B96DFAE2B972C96BFAE80
:1043A0002C972E968FAF2E97AE01465B5F4F64E041
:1043B00070E0CE0101960E942C14CE0101960E945D
:1043C0007313CE0101960E94FB12811105C08F81EB
:1043D000873011F40A8501C001E0802F90E000973A
:1043E000D9F4D09213098DEB94E00E945E0E86ED15
:1043F00094E049DB29C08130910531F48EE493E0EB
:1044000042DBCC24C39423C00A97D1F482EA94E01F
:104410003ADB2AE0C22E1BC08130910579F38B3044
:10442000910531F48EED94E02EDB9BE0C92E0FC098
:10443000489731F484E893E026DB88E1C82E07C072
:104440008BED93E020DBC02ECC2009F4D0CEB092CF
:10445000A8068091A806882359F0B0920002109215
:10446000A506D09213098FEF94E00E945E0E11E42E
:1044700080910002882379F11092A806133241F04E
:1044800080908E0690908F06FFE08F16910489F43D
:1044900010928F0610928E061092A9061092A7060F
:1044A0001092A6061092A506B092A306B092A4069A
:1044B00012C01092A706F401ED56F94F1083612F38
:1044C00086E798E00E9416168FEF881A980A909255
:1044D0008F0680928E068091A306882321F10E9488
:1044E00056198091A4068823F1F087E195E0BADAA5
:1044F00063E976E08AE796E089D3892B49F4D09284
:1045000013098AE195E00E945E0E0E94721904C0B0
:104510008DE295E00E94B914E3E9F6E0DF018A2D0F
:104520001D928A95E9F71092A3060E9483161FCD6B
:1045300081E01BCC2BE630E02ECC20E030E02BCC11
:10454000823351F0833351F0843351F092EC980F61
:10455000983040F492EC26CC88E02ACC84E028CC39
:1045600082E026CC81E024CCE8E6F0E0F0CBCF93EB
:10457000DF93C9E2D2E0D093AE09C093AD098DEAD2
:1045800099E00E94BC18D093CD09C093CC098CEC63
:1045900099E0DF91CF910C94BC1810927908109299
:1045A000780888EE93E0A0E0B0E080937A089093DA
:1045B0007B08A0937C08B0937D088BE392E09093F6
:1045C00077088093760885EC90E090938308809339
:1045D000820884EC90E0909385088093840880ECB6
:1045E00090E0909387088093860881EC90E0909308
:1045F00089088093880882EC90E090938B088093E0
:104600008A0886EC90E090938D0880938C08109235
:104610008F081092900810929108109292084BE027
:104620006AE08CEC99E0BDD941E060E08DEA99E068
:10463000B8D910928B0910928C0910928D091092A2
:104640008E098FEF9FEFDC0180938F099093900983
:10465000A0939109B09392091092AC091092AB0902
:104660008CEC99E09093AA098093A9099093A809EA
:104670008093A7091092180910921C0910921B0927
:1046800010921D098DE492E090931709809316090A
:10469000E6E1F9E0148E10A2178E11A2369689E099
:1046A000E235F807B9F785E092E0909379098093B5
:1046B000780981E092E090937B0980937A0984E005
:1046C00080937C0980937D0989E092E0909377093B
:1046D000809376098AE090E090937F0980937E0929
:1046E00084EF91E09093810980938009109284096E
:1046F0001092830910927209109273091092740932
:1047000010927509109282098CE290E0909315093D
:104710008093140987E08093130961E08CE20C9484
:10472000BD1AF999FECF92BD81BDF89A992780B53F
:104730000895262FF999FECF1FBA92BD81BD20BDE5
:104740000FB6F894FA9AF99A0FBE0196089597FB5E
:10475000072E16F4009406D077FD08D035D007FC5C
:1047600005D03EF4909581959F4F08957095619581
:104770007F4F0895A1E21A2EAA1BBB1BFD010DC09D
:10478000AA1FBB1FEE1FFF1FA217B307E407F50701
:1047900020F0A21BB30BE40BF50B661F771F881FDD
:1047A000991F1A9469F760957095809590959B0173
:1047B000AC01BD01CF010895EE0FFF1F881F8BBF15
:1047C0000790F691E02D1994AA1BBB1B51E107C07D
:1047D000AA1FBB1FA617B70710F0A61BB70B881F91
:1047E000991F5A95A9F780959095BC01CD01089520
:1047F0000F931F93CF93DF938230910510F482E0E3
:1048000090E0E091ED09F091EE0920E030E0A0E0C9
:10481000B0E0309719F1408151810281138148172E
:104820005907C8F08417950769F4109731F012966C
:104830000C93129713961C9327C00093ED091093C5
:10484000EE0922C02115310519F04217530718F45B
:104850009A01BD01EF01DF01F801DBCF2115310520
:10486000F9F0281B390B2430310580F48A819B81B3
:104870006115710521F0FB019383828304C090933D
:10488000EE098093ED09FE01329644C0FE01E20F6D
:10489000F31F8193919322503109398328833AC0C1
:1048A0002091EB093091EC09232B41F420911B025C
:1048B00030911C023093EC092093EB0920911902EE
:1048C00030911A022115310541F42DB73EB74091C0
:1048D0001D0250911E02241B350BE091EB09F09153
:1048E000EC09E217F307A0F42E1B3F0B281739073A
:1048F00078F0AC014E5F5F4F2417350748F04E0F3C
:104900005F1F5093EC094093EB098193919302C090
:10491000E0E0F0E0CF01DF91CF911F910F9108957A
:10492000CF93DF93009709F481C0FC013297138283
:104930001282A091ED09B091EE09109781F42081C7
:104940003181820F931F2091EB093091EC092817D8
:10495000390751F5F093EC09E093EB0967C0ED01DD
:1049600020E030E0CE17DF0740F44A815B819E01F2
:1049700041155105F1F0EA01F5CFD383C28340819F
:104980005181840F951FC817D90759F488819981DF
:10499000840F951F0296918380838A819B819383E4
:1049A00082832115310529F4F093EE09E093ED0996
:1049B0003DC0E901FB83EA8349915991C40FD51F9A
:1049C000EC17FD0761F480819181840F951F029699
:1049D000E90199838883828193819B838A83E0E0C4
:1049E000F0E012968D919C911397009719F0FD01BC
:1049F000DC01F7CF8D919C9111979D012E5F3F4F68
:104A0000820F931F2091EB093091EC092817390789
:104A100069F4309729F41092EE091092ED0902C062
:104A200013821282B093EC09A093EB09DF91CF912E
:104A300008956F927F928F929F92AF92BF92CF9282
:104A4000DF92EF92FF920F931F93CF93DF93009724
:104A500081F4CB01DF91CF911F910F91FF90EF90E7
:104A6000DF90CF90BF90AF909F908F907F906F908E
:104A7000BFCEFC01E60FF71F9C0122503109E2175F
:104A8000F30708F4A5C0EC01D9010D911C91119711
:104A900006171707A8F00530110508F497C0C801DC
:104AA00004978617970708F491C002501109061B56
:104AB000170B019311936D937C93CF0131DF86C067
:104AC0005B01A01AB10A4C01800E911EA091ED0964
:104AD000B091EE09612C712CE12CF12C109709F4A6
:104AE00046C08D919C911197A815B905B1F56C013F
:104AF00042E0C40ED11CCA14DB0478F14C018A18C0
:104B00009B08640142E0C40ED11C1296BC9012971F
:104B10001396AC91B5E0CB16D10440F0B282A383DA
:104B200091828082D9016D937C9309C00E5F1F4FE3
:104B3000800F911FF90191838083EB2DFA2FE114EF
:104B4000F10431F0D7011396FC93EE9312973EC017
:104B5000F093EE09E093ED0939C06816790608F480
:104B60003C017D0112960D90BC91A02DB7CF809194
:104B7000EB099091EC0988169906E1F46616770620
:104B8000C8F48091190290911A02009741F48DB7F0
:104B90009EB740911D0250911E02841B950BE81791
:104BA000F907B0F4F093EC09E093EB09F901718394
:104BB00060830CC0CB011CDE7C01009749F0A8018A
:104BC000BE011BD0CE01ACDEC70104C0CE0102C0C5
:104BD00080E090E0DF91CF911F910F91FF90EF90D7
:104BE000DF90CF90BF90AF909F908F907F906F900D
:104BF000089581E090E0F89419C0FB01DC0102C047
:104C000001900D9241505040D8F70895FB01DC010E
:104C10008D91019080190110D9F3990B0895FB0132
:104C2000DC0101900D920020E1F708951EE0C7E03D
:104C3000DEE000E005C0802FFE01BEDD2196011DF3
:0E4C4000C830D10780E00807B1F7F894FFCF25
:104C4E00010504030209080706444342412339368D
:104C5E0033303835322A3734310000EF0980001BEB
:104C6E0001000000A300000000D41684155D17D3C8
:104C7E001624173B17BB160000000016168415AE3F
:104C8E00156216DF15BD15D11500000000DC17D911
:104C9E0017D71766696E6765727072696E742073C6
:104CAE00656E736F7220666F756E640066696E67EF
:104CBE0065727072696E742073656E736F72206E9A
:104CCE006F7420636F6E6E6563746564003132338A
:104CDE003435363700656E746572206F6C642070E3
:104CEE00617373776F726400656E746572206E65A2
:104CFE00772070617373776F726400736574206EC2
:104D0E0065772070617373776F72643A0077726F94
:104D1E006E672070617373776F72642C20656E748A
:104D2E006572206F6C642070617373776F7264208C
:104D3E006F7220692073756D6D6F6E20736563756C
:104D4E00726974790077726F6E6720706173737712
:104D5E006F726420656E746572206F6C6420706172
:104D6E007373776F72643A0070617373776F7264E6
:104D7E0020736574006E65772070617373776F7240
:104D8E00642069730044656C657465642100436F2B
:104D9E006D6D756E69636174696F6E206572726F89
:104DAE007200436F756C64206E6F742064656C6561
:104DBE00746520696E2074686174206C6F63617411
:104DCE00696F6E004572726F722077726974696EC8
:104DDE006720746F20666C61736800556E6B6E6F22
:104DEE00776E206572726F723A20307800456E725F
:104DFE006F6C6C696E672066696E6765722000491C
:104E0E006D6167652074616B656E002E00496D6182
:104E1E0067696E67206572726F7200556E6B6E6F8A
:104E2E00776E206572726F7200496D6167652063DF
:104E3E006F6E7665727465640072656D6F7665204F
:104E4E0066696E6765720052656D6F76652066697C
:104E5E006E67657200496D61676520746F6F206DB6
:104E6E006573737900436F756C64206E6F74206682
:104E7E00696E642066696E6765727072696E742001
:104E8E0066656174757265730049442000706C61CB
:104E9E0063652073616D652066696E67657220615A
:104EAE006761696E00506C6163652073616D65208A
:104EBE0066696E67657220616761696E004372652F
:104ECE006174696E67206D6F64656C20666F722009
:104EDE0023005072696E7473206D6174636865642B
:104EEE00210046696E6765727072696E7473206414
:104EFE006964206E6F74206D617463680066696EFC
:104F0E0067657220656E726F6C6C20737563636576
:104F1E00737366756C0053746F7265642100436F12
:104F2E00756C64206E6F742073746F726520696E79
:104F3E002074686174206C6F636174696F6E0066B3
:104F4E00696E67657220717565727920737563631A
:104F5E0065737366756C000D0A0070617373776FFD
:104F6E00726420636F6E6669726D65640077726F2E
:104F7E006E672070617373776F72640066696E6717
:104F8E0065727072696E74206973206265696E67EE
:104F9E00207265616400706C656173652072657066
:104FAE006C6163652066696E6765720066696E671F
:104FBE0065727072696E74206E6F7420636C6561B9
:104FCE00722C20636C65616E2066696E6765722057
:104FDE00616E6420776970652073757266616365B2
:104FEE00206F662066696E6765727072696E7420D6
:104FFE006465766963650066696E6765727072696D
:10500E006E7420636F6E6669726D656400616363B2
:10501E00657373206772616E7465640066696E678E
:10502E0065727072696E7420636F6E6669726D65FB
:10503E00642C2070726F6365656420746F206661E6
:10504E006369616C2062696F6D6574726963732048
:10505E00636865636B0066696E6765727072696E10
:10506E0074206E6F7420666F756E642C207265707E
:10507E006C6163652066696E6765722C206D616B6D
:10508E0065207375726520746F2077697065206670
:10509E00696E67657220616E642066696E676572FF
:1050AE007072696E742064657669636520737572BB
:0650BE006661636500005D
:00000001FF
